:020000040800F2
:10000000805F01206D3500088D03000877350008FA
:100010009D030008A1030008A503000800000000DC
:10002000000000000000000000000000A90300081C
:10003000AB0300080000000087600208D9710008C7
:1000400099350008993500089935000833080008EB
:100050009935000899350008993500089935000848
:100060009935000899350008993500089935000838
:100070009935000899350008993500089935000828
:100080009935000899350008993500089935000818
:100090009935000899350008993500086726000849
:1000A00099350008993500089935000899350008F8
:1000B00099350008993500086D4201089935000806
:1000C00099350008993500089935000899350008D8
:1000D00099350008C3730008993500089935000860
:1000E00099350008993500089935000899350008B8
:1000F00099350008993500089935000899350008A8
:10010000993500082D250008993500089935000813
:100110009935000899350008993500089935000887
:1001200099350008993500089935000835250008EB
:100130009935000899350008993500089935000867
:100140009935000899350008993500089935000857
:100150009935000899350008993500089935000847
:100160009935000899350008993500089935000837
:100170009935000899350008993500089935000827
:10018000993500089935000800F002F800F07BF876
:100190000AA090E8000C82448344AAF10107DA45E2
:1001A00001D100F070F8AFF2090EBAE80F0013F0B9
:1001B000010F18BFFB1A43F00103184744910900CF
:1001C000649109000A444FF0000C10F8013B13F051
:1001D000070408BF10F8014B1D1108BF10F8015BA0
:1001E000641E05D010F8016B641E01F8016BF9D193
:1001F00013F0080F1EBF10F8014BAD1C0C1B09D1EA
:100200006D1E58BF01F801CBFAD505E014F8016B5B
:1002100001F8016B6D1EF9D59142D6D370470000ED
:100220000023002400250026103A28BF78C1FBD8FF
:10023000520728BF30C148BF0B607047642924F0C3
:100240009F80752924F09C80782924F0D58063292B
:1002500024F0B784732924F0BC84002070471FB5B4
:1002600041F047FE24F040FE04000020002141F050
:100270008BFA401C60600020002141F06FFAE060C2
:100280001FBD10B510BD24F009FE1146FFF7E7FFB2
:1002900000F008F825F08CF803B4FFF7F2FF03BC78
:1002A00007F02CF88AB0002409A80BF04FFF00BF1C
:1002B00000BF00BF0AF058F9044600BF00BF2B483A
:1002C0000078401C2949087000BF00BF20460AF092
:1002D0004FF900BF00BF00BF09A80321002205920B
:1002E000CDE90621089010464FF480616622204B2C
:1002F000CDE90132CDE90310032000231D4A1EA1E0
:100300000090204810F0A8FC00BF00BF00BF0AF01A
:100310002BF9044600BF00BF14480078401E134963
:10032000087008460078A0B917480088002809DD41
:1003300000BF00BF20460AF01BF900BF00BF0CF051
:1003400026FD0DE000BF00BF20460AF011F900BFF6
:1003500006E000BF00BF20460AF00AF900BF00BF58
:1003600000BF09A80CF0BBF900BFFEE7DC000020CD
:10037000B49B00200F85010873746172742074614E
:10038000736B0000AC970020A0000020704700BFF6
:10039000FEE700BF00BF00BF00BFFEE700BFFEE7F3
:1003A00000BFFEE700BFFEE7704770470CB50020B6
:1003B000019000907548006840F4803073490860EF
:1003C00000BF7248006800F4003000900198401CA3
:1003D0000190009818B90198B0F5A04FF1D16B4881
:1003E000006810F4003F02D00120009001E00020DE
:1003F00000900098012845D164484030006840F0E2
:1004000080506249403108606148006840F44040D3
:100410005F4908605D48083000685C490831086041
:100420000846006840F4004008600846006840F450
:10043000A05008605748091F0860081F006840F076
:100440008070091F086000BF5048006810F0007FEE
:10045000FAD040F20570504908604C4808300068F6
:1004600020F003004949083108600846006840F060
:100470000200086000BF45480830006800F00C002A
:100480000828F8D10CBD10B54448006840F470004D
:10049000424908603D48006840F001003B4908605F
:1004A00000203A4908310860384800683C49084053
:1004B000364908603B48091D0860081F006820F4A1
:1004C0008020091F0860002030490C310860FFF7C8
:1004D0006DFF4FF0006031498039086010BD70B584
:1004E00000200022022300240221284D08352D6817
:1004F00005F00C0020B1042806D0082834D107E00C
:10050000294D2A4E356033E0294D284E35602FE0C5
:100510001E4D2D1D2D68C5F380541C4D2D1D2D68BD
:1005200005F03F0154B1224DB5FBF1F5174E361DD4
:100530003668C6F3881605FB06F209E01A4DB5FBCE
:10054000F1F5124E361D3668C6F3881605FB06F225
:100550000E4D2D1D2D68C5F301456D1C6B00B2FBC2
:10056000F3F5124E356003E00F4D104E356000BFBD
:1005700000BF064D08352D68C5F303150D4E705D9F
:100580000A4D2D68C540094E356070BD00380240E7
:100590000070004019544007003C024088ED00E024
:1005A000FFFFF6FE103000240024F40000000020BD
:1005B00040787D010400002008B56946002004F061
:1005C000B3FD9DF8030000F5FA6008BD08B5694663
:1005D000002004F0A9FD9DF8010008BD08B569469A
:1005E000002004F0A1FD9DF8020008BD08B5694691
:1005F000002004F0FFFC9DF8000008BD08B5694626
:10060000002004F0F7FC9DF8010008BD08B569461C
:10061000002004F0EFFC9DF8020008BD10B586B084
:10062000044604A9002004F0E5FC05A9002004F01C
:100630007BFD9DF812009DF811109DF810209DF88B
:100640001630CDE90032CDE902109DF815309DF845
:10065000170000F5FA627CA1834823F02BFE1CB141
:100660008149204624F007F87F4806B010BD2DE9E7
:10067000FC4704460D4616461F46DDE90A89A4F5E7
:10068000FA60C0B28DF80700E8B28DF80500F0B24C
:100690008DF8060000208DF80400F8B28DF80000F7
:1006A00008F0FF008DF8010009F0FF008DF802004E
:1006B00001A9002004F0D2FC6946002004F030FCBF
:1006C000BDE8FC870EB54FF4C06002F079FF4FF42F
:1006D000800003F038FA4FF48000009000208DF87D
:1006E000040008208DF8050001208DF806006846FA
:1006F00003F0B8F903208DF8080001208DF80900F7
:1007000000208DF80A0001208DF80B0002A802F0ED
:100710005CFF0121880305F0D5F8012004F063FE99
:10072000042004F03BFE002004F04DFE0EBD10B589
:1007300086B000240121080704F085F9012003F0A8
:10074000C4FE012003F0D3FF09E0601CC0B20446E0
:10075000B0F57A7F03DD4FF0FF3006B010BD4120C9
:1007600003F07EFF0028F0D04FF4807004F0C0F852
:10077000012004F0D8F804F071FA7F200490FF20E3
:1007800005900020039003A804F02FFB14208DF89F
:10079000070007208DF805008DF8060001208DF870
:1007A000040001A904F05AFC00208DF80B0012206F
:1007B0008DF8080000208DF809008DF80A0002A9C4
:1007C000012004F0ADFB4AF2A551002004F0F7FF30
:1007D0000020C2E710B5002004F0FEFFA0F525417F
:1007E000A53903D0FFF7A3FF08B310BD0121080707
:1007F00004F029F9012003F068FE04F02FFA4FF409
:10080000807005F09EF84FF4805005F0C7F84FF463
:10081000005005F0C3F8CA2014490860532008604E
:10082000002012491C390860FF201049086000BFF1
:10083000DBE710B54FF4804005F091F818B14FF4A4
:10084000804005F0ABF810BD253034642D253032E2
:10085000642D2530326420253032643A25303264EC
:100860003A25303264000000086900202428004046
:100870001CB5002005F0CEF8002005F0CEF805F0FC
:10088000A1F800214FF4006004F0EEF800220821E6
:10089000FC4803F0D6FD00220921FA4803F0D1FDFF
:1008A00000220A21F74803F0CCFD00220B21F54875
:1008B00003F0C7FD00220C21F24803F0C2FD002224
:1008C0000221F14803F0BDFD4FF47060009000205C
:1008D0008DF804008DF807006946EA4803F026FD0C
:1008E000042000906946E84803F020FD4FF4805052
:1008F00000906946E34803F019FD1CBD10B5FFF7F1
:10090000B7FF10BD2DE9F04106460027DF48056816
:1009100001E0DE48056815F0450FFAD015F0040F28
:1009200006D00327042005F01DF93846BDE8F08104
:1009300015F0010F05D00127012005F013F9384605
:10094000F4E705F090F8B04202D010273846EDE702
:1009500040F2FF5005F006F9002005F089F8044642
:10096000CB48044201D13846E0E714F0004F01D0F3
:100970001C20DBE714F0804F01D00920D6E714F0EB
:10098000005F01D00A20D1E714F0805F01D00B2076
:10099000CCE714F0006F01D00C20C7E714F0806F93
:1009A00001D00D20C2E714F0807F01D00E20BDE7FA
:1009B00014F4000F01D00F20B8E714F4800F01D019
:1009C0001020B3E714F4001F01D01120AEE714F497
:1009D000801F01D01220A9E714F4002F01D01320AA
:1009E000A4E714F4802F01D014209FE714F4003FF3
:1009F00001D015209AE714F4803F01D0162095E726
:100A000014F4004F01D0172090E714F4804F01D068
:100A100018208BE714F4005F01D0192086E714F04A
:100A2000080F01D01A2081E738467FE72DE9FC4105
:100A300007460D4600260024002000900190082063
:100A40009449086010204860402088600020C860F9
:100A50004FF480600861084604F0E9FF1020FFF7BA
:100A600051FF044614B12046BDE8FC818A48008845
:100A700000048849086037204860402088600020D2
:100A8000C8604FF480600861084604F0D0FF37204A
:100A9000FFF738FF04460CB12046E5E74FF0FF3082
:100AA0007E49086008204860302088600220C860C5
:100AB0000020086101204861084604F0E4FF00209E
:100AC0007449086033204860402088600020C86076
:100AD0004FF480600861084604F0A9FF3320FFF757
:100AE00011FF04460CB12046BEE709E04FF40010A8
:100AF00005F02DF820B104F0ECFF4DF82600761C2F
:100B00006248006840F22A610842EFD0082005F0F0
:100B10001EF828B1082005F025F804242046A3E794
:100B2000022005F014F828B1022005F01BF8022479
:100B3000204699E7202005F00AF828B1202005F08A
:100B400011F8062420468FE74FF4007004F0FFFFF1
:100B500030B14FF4007005F005F80724204683E714
:100B600040F2FF5004F0FEFF00980006009901F4E7
:100B70007F4140EA0120009901F47F0140EA112001
:100B8000009940EA1160686001980006019901F43B
:100B90007F4140EA0120019901F47F0140EA1120E0
:100BA000019940EA1160286020465DE77CB5054662
:100BB000002400200090019004F05AFF10F0007F04
:100BC00002D00E2420467CBD3349098888B269468C
:100BD000FFF72CFF04460CB12046F4E7012D35D178
:100BE000019810F4802F2ED02B480088000429494A
:100BF000086037204860402088600020C860A80254
:100C00000861084604F013FF3720FFF77BFE044617
:100C10000CB12046D7E702201E4908600620486034
:100C2000402088600020C8604FF48060086108465A
:100C300004F0FDFE0620FFF765FE04460CB12046D9
:100C4000C1E72046BFE725242046BCE7019810F401
:100C5000803F3DD01048008800040E4908603720CE
:100C60004860402088600020C8604FF480600861C0
:100C7000084604F0DCFE3720FFF744FE04467CB152
:100C80002046A0E700080240000C0240342C01403E
:100C900008E0FFFDC869002018000020DC69002082
:100CA0000020FE490860062048604020886000203F
:100CB000C8604FF480600861084604F0B8FE062062
:100CC000FFF720FE04460CB120467CE720467AE779
:100CD0002524204677E770B504460025F0480068D3
:100CE000032802D12725284670BDED48006838B199
:100CF000EB480068012803D0E948006802282CD19D
:100D0000B4F5805F02D127252846EDE7B4F5006FE2
:100D100013D10120FFF74AFF0546F5B90020E1494C
:100D200008750860486088604FF40060C860002063
:100D30000861084604F051FE0FE00020FFF736FF7F
:100D4000054655B90020D749087508604860886095
:100D5000C8600861084604F040FE2846C4E770B544
:100D600004460D464FF00006CC4804604FF00700E3
:100D7000CA4948604FF0400088604FF00000C860EA
:100D80004FF480600861084604F051FE0720FFF729
:100D9000B9FD0646304670BDF0B501460020002280
:100DA000BF4B1B7881F85630BF4B1B88A1F85430DD
:100DB000BE4B1B681A0E93090B70C2F383034B7072
:100DC00002F003038B70B94B1B68C3F30742CA7070
:100DD000B64B1B88C3F307220A71B44B1A784A71C9
:100DE0005B681A0E1301CB80B04B5B68C3F30742FC
:100DF000CB8843EA1213CB8002F00F030B72AB4B8C
:100E00009B88C3F30722D3094B72C2F380138B7202
:100E1000C2F34013CB72C2F300130B7300234B7366
:100E20009F4B1B681BB19E4B1B68012B4FD1930737
:100E30001B0D0B619D4B1A790B6943EA82030B6111
:100E40009A4B9B681A0E0B6943EA92130B61C2F32B
:100E5000C2030B7502F007034B75944B9B68C3F3F9
:100E6000074253098B75C2F38203CB7593075B0F5F
:100E70000B768E4B1B89C3F307220B7E43EAD213FA
:100E80000B760B695B1C0024C1E912340B7ED1E99F
:100E900012469B1C012505FA03F3DF17A4FB035C34
:100EA00006FB03C304FB0733C1E912530C7A012389
:100EB000A3400B650027D1E912560B6DA5FB034C2F
:100EC00006FB03C305FB0733C1E9124336E0744B4D
:100ED0001B68022B32D1754B1A7993069B0A0B6162
:100EE000724B9B681A0E0B6943EA02230B616F4B2E
:100EF0009B68C3F307420B6913430B616B4B1B8960
:100F0000C3F307220B6900245B1C44EB04074FF476
:100F100000760025A3FB064C07FB06C603FB05660F
:100F20004FF480650027A4FB053C06FB05C504FBC8
:100F30000754C1E912344FF400730B65C2F38013F8
:100F400001F8193F93065B0E4B70584B1A7A4B7899
:100F500043EAD2134B7002F07F038B70534BDB6874
:100F60001A0ED309CB70C2F341130B71C2F3820383
:100F70004B7193071B0F8B714C4BDB68C3F307421C
:100F80008B7943EA92138B71C2F34013CB71002328
:100F90000B7202F001034B72444B9B89C3F307228F
:100FA000D3098B72C2F38013CB72C2F340130B735D
:100FB000C2F300134B73C2F381038B7302F003037C
:100FC000CB733A4B1A7B53080B7401234B74384B89
:100FD0001B681A0ECA74A1F11901354B1B68C3F3C3
:100FE00007424FEA0224CC85314B1B88C3F307220A
:100FF000CB8D43EA0203CB852D4B1A784FEA02646E
:101000000C635B684FEA13620B6B43EA02440C63A8
:10101000274B5B68C3F307420B6B43EA02240C6364
:10102000234B9B88C3F307220B6B43EA02030B633A
:101030001F4B1A794FF034035A541D4B9B684FEAEB
:1010400013624FF035035A54194B9B68C3F30742A0
:101050004FEA02648C63164B1B89C3F307228B6B28
:1010600043EA02448C63124B1A7A8B6B43EA0224E4
:101070008C630F4BDB684FEA13628B6B43EA02030E
:101080008B630B4BDB68C3F307424FF03C035B5CA5
:1010900043EA12144FF03C035C540BE0C869002093
:1010A00014000020B06900201800002028690020EA
:1010B000386900204FEA02734FEA1354CC87FA4B89
:1010C0009B89C3F30722CB8F43EA0203CB87F64BFE
:1010D0001A7B4FEA52044FF040035C544FF0010476
:1010E0004FF041035C54F0BD70B50025EF48046833
:1010F00001E0EE48046814F0450FFAD014F0040F34
:1011000005D00325042004F02DFD284670BD14F001
:10111000010F05D00125012004F024FD2846F5E744
:1011200040F2FF5004F01EFD2846EFE72DE9F041A4
:1011300006460F464FF00008DC48056801E0DB4832
:10114000056815F0450FFAD015F0040F07D04FF0E1
:101150000308042004F006FD4046BDE8F08115F0C8
:10116000010F06D04FF00108012004F0FBFC4046BF
:10117000F3E704F078FCB04203D04FF0100840468B
:10118000EBE740F2FF5004F0EDFC002004F070FCAF
:10119000044614F4604F03D1200C38804046DCE74D
:1011A00014F4005F01D01320D7E714F4804F01D06E
:1011B0001020D2E714F4004F01D00F20CDE74046B5
:1011C000CBE738B500240120009004F02AFC10B9C8
:1011D0002524204638BDB6480068042828D00020C1
:1011E000B449086002204860C02088600020C860C0
:1011F0004FF480600861084604F019FCFFF774FFA3
:1012000004460CB12046E5E7002004F031FCA64975
:101210000860042004F02CFCA3494860082004F076
:1012200027FCA14988600C2004F022FC9E49C8607C
:101230009F48006858B19E480068012807D09C4824
:101240000068062803D09A480068022816D10020BA
:101250009849086003204860402088600020C860EA
:101260004FF480600861084604F0E1FB6946032002
:10127000FFF75CFF04460CB12046ABE78C480068E2
:1012800004282ED0BDF800008B490860BDF800008E
:1012900000048849086009204860C0208860002058
:1012A000C8604FF480600861084604F0C0FBFFF797
:1012B0001BFF04460CB120468CE7002004F0D8FB4D
:1012C0007E490860042004F0D3FB7C494860082074
:1012D00004F0CEFB794988600C2004F0C9FB774903
:1012E000C8600024204675E770B500256F48046883
:1012F00001E06E48046814F0450FFAD014F0040FB2
:1013000005D00325042004F02DFC284670BD40F2D2
:10131000FF5004F027FC2846F8E770B500264FF48C
:1013200080356248046802E06D1E6048046814F06D
:10133000450F01D1002DF7D115B114F0040F05D0E0
:101340000326042004F00EFC304670BD14F0400F5C
:1013500005D00026402004F005FC3046F5E7304675
:10136000F3E770B500254FF4803400E0641E24B12B
:10137000802004F0ECFB0028F8D014B9032528469F
:1013800070BD40F2FF5004F0EDFB2846F8E7F8B5D9
:1013900000200090002500240026002776204849E0
:1013A00008750020086048608860C86008610846C9
:1013B00004F013FB032004F030FB012004F02AFBAF
:1013C00000203C49086048608860C8604FF4806035
:1013D0000861084604F02BFBFFF7C3FF00909DF85F
:1013E000000010B19DF80000F8BD4FF4D5703149F0
:1013F000086008204860402088600020C8604FF4E2
:1014000080600861084604F012FBFFF786FF009039
:101410009DF8000020B9012025490860870712E0E7
:101420000020244908603720486040208860002060
:10143000C8604FF480600861084604F0F8FA37206D
:10144000FFF760FA009000201A49086037204860D2
:10145000402088600020C8604FF480600861084622
:1014600004F0E5FA3720FFF74DFA00909DF80000F0
:1014700000285FD149E000200E490860372048600D
:10148000402088600020C8604FF4806008610846F2
:1014900004F0CDFA3720FFF735FA00909DF80000F0
:1014A00080B19DF800009FE738690020342C01408E
:1014B00014000020C86900201800002028690020BE
:1014C000B0690020F7483843F74908602920486090
:1014D000402088600020C8604FF4806008610846A2
:1014E00004F0A5FAFFF700FF00909DF8000010B18E
:1014F0009DF8000078E7002004F0BAFA05460120C4
:1015000080EAD57080F00106641C1EB94FF6FF70AA
:101510008442B0D34FF6FF70844204D31B20009066
:101520009DF8000060E705F08040050002D0022031
:10153000DE4908609DF8000056E71CB501210D202A
:1015400003F038FA0C220821D94802F07AFF0C2265
:101550000921D74802F075FF0C220A21D44802F075
:1015600070FF0C220B21D24802F06BFF0C221146B7
:10157000CF4802F066FF0C220221CE4802F061FF44
:101580004FF47060009002208DF805008DF8040083
:1015900000208DF8060001208DF807006946C44838
:1015A00002F0C4FE042000906946C24802F0BEFE6C
:1015B0004FF48050009000208DF807006946BC4829
:1015C00002F0B4FE4FF40060009000208DF804009B
:1015D00001208DF807006946B74802F0A7FE0121F7
:1015E000C80203F041FA0121880503F0E3F91CBDAC
:1015F00008B531208DF8000000208DF801008DF82D
:10160000020001208DF80300684601F0DEFF3B2058
:101610008DF8000001208DF80100684601F0D5FF2B
:1016200008BD08B500200090FFF7E2FFFFF785FF37
:1016300004F0C8F9FFF7ABFE00909DF8000010B170
:101640009DF8000008BDFFF7BCFD00909DF800006C
:1016500010B19DF80000F5E7002098490875086072
:1016600048608860C8600861084604F0B6F994488C
:10167000FFF792FB00909DF8000040B99048B0F849
:101680005400020410460021FFF769FB00909DF80A
:10169000000020B94FF40060FFF71DFB00909DF89B
:1016A0000000CFE770B50446002514B9262528466A
:1016B00070BD8448008800047B4908600D204860A4
:1016C000402088600020C8604FF4806008610846B0
:1016D00004F0ADF90D20FFF715F905460DB12846C8
:1016E000E6E7002004F0C4F920602846E0E708B5EA
:1016F00001200090C102704802F07AFE08B100207B
:1017000000909DF8000008BD08B500200090FFF78C
:10171000EEFF012809D16846FFF7C4FF08B1FF209A
:1017200008BD0098C0F34320FAE7FF20F8E710B5A2
:101730000424FFF7E9FF0446042C01D1002010BD6A
:10174000FF2C01D10220FAE70120F8E710B50024B0
:10175000002004F062F9204610BD70B50446002652
:101760000025002004F084F910F0007F02D00E263E
:10177000304670BD40204C49086010204860402031
:1017800088600020C8604FF480600861084604F05B
:101790004EF91020FFF7B6F806460EB13046E8E7DE
:1017A00048480088000440490860372048604020CD
:1017B00088600020C8604FF480600861084604F02B
:1017C00036F93720FFF79EF806460EB13046D0E7CF
:1017D0004FF0FF303C49086040204860602088603E
:1017E0000220C8600020086101204861084604F01A
:1017F0004AF900202C4908600D204860402088608C
:101800000020C8604FF480600861084604F00FF9BA
:101810000D20FFF777F806460EB13046A9E70EE037
:101820004FF4004004F093F948B1002504E004F0BF
:1018300050F944F825006D1C082DF8D320342348B6
:10184000006840F22A610842EAD0082004F07FF9DB
:1018500028B1082004F086F90426304689E70220E2
:1018600004F075F928B1022004F07CF90226304614
:101870007FE7202004F06BF928B1202004F072F9F2
:101880000626304675E74FF4007004F060F930B179
:101890004FF4007004F066F90726304669E74FF010
:1018A000FF351AE000001080C869002014000020F5
:1018B00000080240000C024000000240B069002015
:1018C0005869002018000020DC690020342C0140F9
:1018D00004F0FFF82060241D6D1E4FF4001004F08A
:1018E00036F908B1002DF3D140F2FF5004F03AF977
:1018F00030463EE770B5044600260025FB48FFF75A
:101900002CFF06460EB1304670BDF84800788509B8
:101910002570F6480078C0F340156570F348857867
:1019200028026080F148C578608828436080EF48CD
:10193000057928066060ED484579606840EA054011
:101940006060EA488579606840EA05206060E748A1
:10195000C579606828436060E448057A2572457A55
:101960006572807A0509A572E048C57A2802A081CF
:10197000DE48057BA0892843A081DC48407B8508A0
:10198000A573DA48407B00F00305E5733046BBE7FA
:1019900030B58FB005460C464FF0FA51D44801F0EF
:1019A000D5FF0021D24801F059FFD14801F07AFE5D
:1019B0004FF000600090CF48019002950020039006
:1019C000049405904FF480600690800007900020FA
:1019D000089009904FF440300A9004200B900320A7
:1019E0000C904FF400000D9080100E906946C04896
:1019F00001F0FAFE01221021BD4801F0BBFF2021B9
:101A0000BB4801F041FF0121B94801F027FF0FB0A9
:101A100030BD2DE9F041804614461D46069E4FF02C
:101A200000073846B4490870B4490860B4490860F2
:101A3000B44908604FF0010140F22A3004F076F812
:101A4000012004F06FF831464046FFF7A1FFAE4891
:101A50000068022808D10602020200232046294617
:101A600022F0A5FB04460D46A84806601020A749B1
:101A70004860402088600020C8604FF480600861A2
:101A8000084603F0D4FF1020FEF73CFF074617B1CD
:101A90003846BDE8F0814FF0FF309D4908600846A8
:101AA0004660902088600220C86000200861012004
:101AB0004861084603F0E7FF944804601120934909
:101AC0004860402088600020C8604FF48060086152
:101AD000084603F0ACFF1120FEF714FF07460FB1D4
:101AE0003846D6E73846D4E72DE9F0478146144614
:101AF0001D46DDE908684FF0000738467E4908704A
:101B00007E4908604FF001007D4908604FF00000F9
:101B10007C4908604FF0010140F22A3004F006F8D9
:101B200008FB06F14846FFF733FF012003F0FAFFF8
:101B300075480068022808D10602020200232046E8
:101B4000294622F034FB04460D46704806601020FA
:101B50006E494860402088600020C8604FF4806073
:101B60000861084603F063FF1020FEF7CBFE07462E
:101B700017B13846BDE8F0874FF0FF306449086080
:101B800008FB06F04860902088600220C8600020B2
:101B9000086101204861084603F075FF5B48046056
:101BA00012205A494860402088600020C8604FF4E5
:101BB00080600861084603F03AFF1220FEF7A2FE9B
:101BC00007460FB13846D5E73846D3E710B50024AD
:101BD00000204E4908600C204860402088600020AA
:101BE000C8604FF480600861084603F020FF0C20B5
:101BF000FEF788FE0446204610BD70B500256C1E19
:101C000000E0641E4348006838B93C48006820B9C9
:101C10003948007808B9002CF3D100203D4908600C
:101C2000441E00E0641E37480830006810F4005F6E
:101C300001D0002CF6D132480068012805D1FFF709
:101C4000C5FF054600202E4908600CB905B90425DA
:101C500040F2FF5003F086FF2748007810B1264875
:101C6000007870BD2846FCE730B58FB005460C46BD
:101C70004FF0FA511E4801F069FE00211C4801F0A6
:101C8000EDFD1B4801F00EFD4FF00060009019487B
:101C900001900295402003900494002005904FF499
:101CA00080600690800007900020089009904FF413
:101CB00040300A9004200B9003200C904FF4000059
:101CC0000D9080100E906946094801F08DFD0122AB
:101CD0001021074801F04EFE2021054801F0D4FDF7
:101CE0000121034801F0BAFD0FB030BD4869002062
:101CF00058640240802C0140200000202400002075
:101D00001C0000202C2C014014000020C869002079
:101D1000DC690020280000202DE9F04180461446AF
:101D20001D46069E4FF000073846F7490870F749F0
:101D30000860F7490860F74908604FF0010140F278
:101D40002A3003F0F3FE31464046FFF78DFF0120B5
:101D500003F0E8FEF0480068022808D106020202FB
:101D600000232046294622F022FA04460D46EB487D
:101D700006601020E9494860402088600020C86063
:101D80004FF480600861084603F051FE1020FEF712
:101D9000B9FD074617B13846BDE8F081DF48046059
:101DA0001820DE494860402088600020C8604FF459
:101DB00080600861084603F03AFE1820FEF7A2FD95
:101DC00007460FB13846E7E74FF0FF30D4490860C7
:101DD00008464660902088600020C86008610120A5
:101DE0004861084603F04FFE3846D5E72DE9F04735
:101DF000814615461E46DDE908784FF0000420466E
:101E0000C1490870C14908604FF00100C04908602D
:101E10004FF00000BF4908604FF0010140F22A3046
:101E200003F084FE08FB07F14846FFF71DFF012081
:101E300003F078FEB8480068022808D107020202C1
:101E400000232846314622F0B2F905460E46B34833
:101E500007601020B1494860402088600020C860B9
:101E60004FF480600861084603F0E1FD1020FEF7A2
:101E700049FD044614B12046BDE8F087A948008812
:101E80000004A64908603720486040208860002090
:101E9000C8604FF480600861084603F0C8FD372031
:101EA000FEF730FD04460CB12046E5E79B48C0F83C
:101EB0000080172099494860402088600020C86051
:101EC0004FF480600861084603F0B1FD1720FEF76B
:101ED00019FD04460CB12046CEE790480560192054
:101EE0008E494860402088600020C8604FF48060C0
:101EF0000861084603F09BFD1920FEF703FD044628
:101F00000CB12046B8E74FF0FF308549086008FB68
:101F100007F04860902088600020C86008610120B8
:101F20004861084603F0AFFD2046A5E770B50025DF
:101F30006C1E00E0641E7C48006838B97348006875
:101F400020B97148007808B9002CF3D100207649F7
:101F50000860441E00E0641E6E480830006810F4FB
:101F6000805F01D0002CF6D169480068012805D1B6
:101F7000FFF72CFE05460020654908600CB905B93D
:101F8000042540F2FF5003F0EDFD5F48007810B1EA
:101F90005D48007870BD2846FCE75E480830006860
:101FA00010F4405F01D0012070470020FCE77CB5B1
:101FB000044600250020019000905A480088000443
:101FC000564908600D204860402088600020C860A5
:101FD0004FF480600861084603F029FD4D48083041
:101FE0000068009003E04B480830006800900098BB
:101FF00010F0450FF7D0009810F0040F05D003251E
:10200000042003F0AFFD28467CBD009810F0010FBE
:1020100005D00125012003F0A5FD2846F4E703F0D3
:1020200022FD009000980D2802D010252846EBE7ED
:1020300040F2FF5003F096FD002003F019FD0190DF
:102040000198C0F34320207038490198084201D11B
:102050002846D9E7019810F0004F01D01C20D3E7A3
:10206000019810F0804F01D00920CDE7019810F0C1
:10207000005F01D00A20C7E7019810F0805F01D00F
:102080000B20C1E7019810F0006F01D00C20BBE7D6
:10209000019810F0806F01D00D20B5E7019810F085
:1020A000807F01D00E20AFE7019810F4000F01D01F
:1020B0000F20A9E7019810F4800F01D01020A3E7AA
:1020C000019810F4001F01D011209DE7019810F431
:1020D000801F01D0122097E7019810F4002F01D043
:1020E000132091E7019810F4802F01D014208BE782
:1020F000019810F4003F01D0152085E7019810F4F5
:10210000803F15D016207FE720000020240000200B
:102110001C0000202C2C014014000020C869002065
:10212000DC690020180000202800002008E0FFFDE6
:10213000019810F4004F01D0172065E7019810F4C2
:10214000804F01D018205FE7019810F4005F01D0A4
:10215000192059E7019810F0080F01D01A2053E711
:10216000284651E72DE9FC4705460E461746984696
:102170004FF00004A146204601900090EF484068CF
:102180004FF0200111EA105F03D125242046BDE85D
:10219000FC87EB480068C0B2801CEA49B1FBF0F054
:1021A0000190002003F064FC10F0007F02D00E24A8
:1021B0002046ECE7E4480068022810D10202002320
:1021C0002846314621F0F3FF05460E464FF40072D3
:1021D00000233846414621F0EAFF07468846DA48A0
:1021E000006838B1D8480068012803D0D648006894
:1021F00002282BD1D54805602020D44948604020D2
:1022000088600020C8604FF480600861084603F0D1
:102210000EFC2020FEF776FB04460CB12046B6E704
:10222000CA4807602120C9494860402088600020D2
:10223000C8604FF480600861084603F0F8FB212075
:10224000FEF760FB04460CB12046A0E70020BF4922
:10225000086026204860402088600020C8604FF455
:1022600080600861084603F0E2FB2620FEF74AFB87
:1022700004460CB120468AE74FF0000901E009F15D
:10228000010901988145FAD36846FFF790FE04469C
:102290004FF0FF3905E06846FFF789FE0446A9F1D3
:1022A0000109B9F1000F08D03CB99DF800000728DA
:1022B000F1D09DF800000628EDD0204667E710B564
:1022C0004FF4807003F052FC50B10020A049087018
:1022D0004FF4807003F055FC01209E49086037E000
:1022E000022003F043FC30B1022003F04AFC02203C
:1022F000974908702CE0082003F038FC30B1082022
:1023000003F03FFC04209249087021E0202003F0F4
:102310002DFC30B1202003F034FC06208C490870DD
:1023200016E0102003F022FC30B1102003F029FC4D
:102330000520874908700BE04FF4007003F016FC8D
:1023400030B14FF4007003F01CFC07208049087086
:1023500000214CF23A3003F0E9FB7D48007810BDD3
:1023600010B57D48006810F0C05F08D001207B499F
:1023700008604FF0C2517848583001F0E7FA10BDBC
:102380000146002002E04910421CD0B20129FAD1D6
:102390007047F0B593B000250020119012900027EF
:1023A000402101A822F0E4FA002401AE002068498F
:1023B0000870684908606A49086061492831086006
:1023C0006849098888B211A9FEF730FB054615B1A6
:1023D000284613B0F0BD129810F0807F03D11298F8
:1023E00010F0007F01D0012000E000200746002F00
:1023F00071D0402055490860102048604020886016
:102400000020C8604FF480600861084603F00FFBAD
:102410001020FEF777FA05460DB12846D9E74FF0B0
:10242000FF305149086040204860602088600220E9
:10243000C8600020086101204861084603F023FBC2
:102440004A484249086006204860402088600020D1
:10245000C8604FF480600861084603F0E8FA06207F
:10246000FEF750FA05460DB12846B2E70EE04FF4EC
:10247000004003F06CFB48B1002404E003F029FBAA
:1024800046F82400641C082CF8D320362C48303041
:10249000006840F22A610842E9D0082003F057FBA7
:1024A00028B1082003F05EFB0425284691E70220AE
:1024B00003F04DFB28B1022003F054FB022528460F
:1024C00087E7202003F043FB30B1202003F04AFBD4
:1024D000062528467DE727E04FF4007003F037FB20
:1024E00030B14FF4007003F03DFB0725284670E73C
:1024F0004FF0FF3404E003F0ECFA3060361D641E48
:102500004FF4001003F023FB08B1002CF3D140F28C
:10251000FF5003F027FB9DF8110000F00200022895
:1025200001D1002500E02725284652E710B5FFF726
:10253000C6FE10BD10B5FFF713FF10BD28690020BF
:10254000042C0140C0D4010014000020C869002000
:102550002000002024000020006402402800002009
:102560001C00002018000020DC69002001FFFF8013
:102570001CB50121880302F077FA0621052003F03B
:1025800062FD402001F0DFFA4020009000208DF82D
:1025900004000C208DF8050001208DF80600684627
:1025A00001F060FA0721052003F04DFD802001F0C5
:1025B000CAFA8020009000208DF804000C208DF8CD
:1025C000050001208DF80600684601F04BFA1CBD9D
:1025D00008B54FF4806000F0F3FF17208DF800007D
:1025E00000208DF801008DF8020001208DF8030015
:1025F000684600F0EAFF08BD1CB50121202002F06A
:10260000D9F903208DF8050001208DF807008020FE
:10261000009000208DF804008DF8060001208DF850
:1026200007006946274801F081FE40200090002005
:102630008DF804008DF8060001208DF8070069462A
:10264000204801F073FEFFF793FFFFF7C1FF1CBDA9
:102650001CB5044601A800230422214600901A4814
:102660000DF00AFA1CBD10B5402001F061FA28B146
:10267000402001F068FA1548FFF7EAFF802001F0DA
:1026800057FA28B1802001F05EFA1148FFF7E0FF09
:10269000202001F04DFA10B1202001F054FA4FF43F
:1026A000807001F045FA18B14FF4807001F04BFAD8
:1026B0004FF4007001F03CFA18B14FF4007001F0D3
:1026C00042FA10BD00140240F894002030000020AF
:1026D0002C000020012806D0022808D003280AD0A8
:1026E000042810D10BE00121FB4A11700BE00221FC
:1026F000F94A117007E00321F74A117003E0042141
:10270000F54A117000BF00BF704710B54FF48071DB
:10271000F24801F087FE4FF40071F04801F082FEAC
:102720004FF48061ED4801F07DFE4FF40041EB482D
:1027300001F078FEE8480078012806D002280AD087
:1027400003280ED0042818D111E04FF48071E3481B
:1027500001F06AFE11E04FF40071E04801F064FE00
:102760000BE04FF48061DD4801F05EFE05E04FF4C0
:102770000041DA4801F058FE00BF00BF10BD10B59F
:102780004FF48071D54801F04DFE4FF40071D348ED
:1027900001F048FE4FF48061D04801F043FE4FF451
:1027A0000041CE4801F03EFE10BD10B54FF48051FF
:1027B000CA4801F039FE10BD10B54FF48051C7482A
:1027C00001F030FE10BD1CB50121412002F0F2F8ED
:1027D00003208DF8050000208DF8060001208DF8FB
:1027E000070000208DF804004FF400600090694657
:1027F000BA4801F09BFD01208DF804008020009074
:102800006946B74801F092FD4FF480500090694648
:10281000B24801F08BFD4FF4807000906946B048DB
:1028200001F084FD4FF4807000906946AB4801F0E0
:102830007DFD4FF4007000906946A84801F076FDD8
:102840004FF4806000906946A44801F06FFD4FF49A
:10285000004000906946A14801F068FDFFF78FFF36
:102860001CBD70B50446082519E04FF480719C48E2
:1028700001F0DAFD14F0800F04D08021984801F0B7
:10288000D1FD03E08021964801F0CEFD4FF4807128
:10289000934801F0C7FD6006040E681EC5B2002D06
:1028A000E3D170BD70B50024082513E04FF48071AA
:1028B0008B4801F0B9FD6006040E4FF48071884822
:1028C00001F0B0FD4FF40061844801F091FD044334
:1028D000681EC5B2002DE9D1204670BD10B5002498
:1028E000FFF713FFD720FFF7BCFF00BFFFF7DAFFAA
:1028F000044614F0800FF9D0FFF741FF10BD38B542
:1029000078A0006800900024FFF7E8FFFFF7FDFEC5
:1029100000BF04E01DF80400FFF7A3FF641C042CB3
:10292000F8DBFFF72CFF38BD38B56FA000680090CA
:102930000024FFF7D3FFFFF7E8FE00BF04E01DF817
:102940000400FFF78EFF641C042CF8DBFFF717FF71
:1029500038BD10B50446FFF72FFFFFF7BFFFFFF7A5
:10296000D4FE8120FFF77DFFC4F30740FFF779FF16
:10297000C4F30720FFF775FFE0B2FFF772FFFFF720
:10298000FEFEFFF7ABFFFFF710FF10BD38B557A0F5
:10299000006800900024FFF70FFFFFF79FFFFFF78D
:1029A000B4FE00BF04E01DF80400FFF75AFF641CEA
:1029B000042CF8DBFFF7E3FEFFF790FFFFF7F5FECF
:1029C00038BDF8B505464AA00068009000242E46A0
:1029D000FFF7F2FEFFF782FFFFF797FE00BF04E06C
:1029E0001DF80400FFF73DFF641C042CF8DB0024F5
:1029F00003E03046FFF735FF641C102CF9DBFFF7CE
:102A0000BEFEFFF76BFFFFF7D0FEF8BD38B50546F9
:102A100038A0006800900024FFF760FFFFF775FE04
:102A200000BF04E01DF80400FFF71BFF641C042C2A
:102A3000F8DB002403E0FFF735FF2855641C102C59
:102A4000F9DBFFF79CFEFFF749FF38BD38B52AA038
:102A5000006800900024FFF7AFFEFFF73FFFFFF78D
:102A600054FE00BF04E01DF80400FFF7FAFE641CEA
:102A7000042CF8DBFFF783FEFFF730FFFFF795FE2E
:102A800038BD2DE9F84F05460C4617464FF0000AB1
:102A9000D3464FF4047900200090A046B8FBF9F02B
:102AA00009FB108BB8FBF9FA4BEA8A2000906E46BE
:102AB000FFF782FEFFF712FFFFF727FE8220FFF7E6
:102AC000D0FEB078FFF7CDFE7078FFF7CAFE307801
:102AD000FFF7C7FE16E000003400002000000240AF
:102AE000001802403D2A7FA93D2A7F9A3D2A7FCFC8
:102AF0003D2A7FFC322A7FFCC794809A15F8010B8F
:102B0000FFF7AFFE3800A7F101018FB2F6D1FFF752
:102B100036FEFFF7E3FEFFF748FEBDE8F88F2DE92C
:102B2000F84F05460C4617464FF0000AD3464FF4BF
:102B3000047900200090A046B8FBF9F009FB108B47
:102B4000B8FBF9FA4BEA8A2000906E46FFF7C6FE02
:102B5000FFF7DBFDE820FFF784FEB078FFF781FE8A
:102B60007078FFF77EFE3078FFF77BFEA520FFF739
:102B700078FEA520FFF775FEA520FFF772FEA520C1
:102B8000FFF76FFE03E0FFF78DFE05F8010B38003D
:102B9000A7F101018FB2F6D1FFF7F1FDBDE8F88F83
:102BA0002DE9F0410024002500260027FFF7ADFDA8
:102BB0009F20FFF756FEFFF775FE0546FFF772FEF2
:102BC0000646FFF76FFE0746FFF76CFE8046FFF7ED
:102BD000D6FD280640EA064040EA072040EA0804FD
:102BE0002046BDE8F0812DE9F04105460E464FF440
:102BF0000474002700BFA2B231462846FFF741FF08
:102C0000A2B23146C148FFF78AFF781C0746052863
:102C100000D906E02246BD49284621F000FD0028E3
:102C2000E9D100BFBDE8F0812DE9F74F86B0064637
:102C30008A460020059004900390029083464FF44A
:102C4000047400270025DDF8208014B909B0BDE820
:102C5000F08FBAFBF4F060430290BAFBF4F004FB8F
:102C600010ABBBF1000F01D1002001E0A4EB0B0081
:102C70000746B84501D9059701E0CDF81480B8455D
:102C80000BD9A8EB0700B0FBF4F00490A8EB070009
:102C9000B0FBF4F104FB11000390DDF808900598F7
:102CA000B8B1A2B249469A48FFF739FFCDF804B04F
:102CB000002506E016F8011B01982844944A115497
:102CC0006D1C05988542F5D349469148FFF78BFF67
:102CD000A144049858B1002506E049463046FFF764
:102CE00082FF2644A1446D1C04988542F5D30398C5
:102CF00090B1A2B249468648FFF711FF002504E0D3
:102D000016F8010B824948556D1C03988542F7D38C
:102D100049467F48FFF767FF00BF97E72DE9F74F68
:102D200086B006468A4600200590049003900290E3
:102D300083464FF404740027DDF82080002514B981
:102D400009B0BDE8F08FBAFBF4F060430290BAFB23
:102D5000F4F004FB10ABBBF1000F01D1002001E047
:102D6000A4EB0B000746B84501D9059701E0CDF863
:102D70001480B8450BD9A8EB0700B0FBF4F0049021
:102D8000A8EB0700B0FBF4F104FB11000390DDF8A1
:102D90000890059898B1A2B249465E48FFF7BFFE79
:102DA000CDF804B0002506E0019828445949085C94
:102DB00006F8010B6D1C05988542F5D3A1440498D3
:102DC00060B1002507E0A2B249463046FFF7A7FEF2
:102DD0002644A1446D1C04988542F4D3039870B135
:102DE000A2B249464B48FFF79AFE002504E0494845
:102DF000405D06F8010B6D1C03988542F7D300BFB8
:102E00009EE710B5FFF77BFDFFF78EFDFFF7BEFDD8
:102E10000020FFF7D6FD0020FFF7F8FD10BD30B50C
:102E200099B0002400254FF480513B4801F0FAFA94
:102E300045B9FFF7ABFD6846FFF7E8FDFF20FFF758
:102E4000C0FD04E04FF48051334801F0EDFA6846CC
:102E5000FFF7DCFD4FF480512F4801F0E3FA002426
:102E600004E06019C0B20DF80400641CB4F5806F72
:102E7000F7DB4FF4806200216846FFF7D5FE4FF480
:102E8000806201216846FFF749FF19B030BD10B5D7
:102E900086B00024FFF797FC00BF33E0611CC8B286
:102EA000FFF718FCFFF77CFEC4EBC4011B4A42F895
:102EB0002100C4EBC400114651F820001849884293
:102EC0001FD1C4EBC40102EB8101081D15A121F043
:102ED000D2FB4FF40010C4EBC401104A02EB810195
:102EE00048614FF40470C4EBC40102EB8101088314
:102EF00001A8FFF78BFD9DF80400FF2801D0FFF724
:102F000045FD641C042CC9DB06B010BDF46900202B
:102F1000046C0020146E0020000002402470002089
:102F20000000261F41543435444231363100000040
:102F30001CB5012140F2FF1001F03CFD0121880386
:102F400001F092FD0C220021FE4801F07AFA0C22D9
:102F50000121FC4801F075FA0C220221F94801F028
:102F600070FA0C220321F74801F06BFA0C220421BD
:102F7000F44801F066FA0C220521F24801F061FAEA
:102F80000C221146EF4801F05CFA0C220D21ED48AD
:102F900001F057FA0C220E21EA4801F052FA0C22F5
:102FA0000F21E84801F04DFA4FF23F000090022057
:102FB0008DF8040001208DF8050000208DF8060032
:102FC00001208DF807006946DE4801F0AFF90C22B8
:102FD0000021DD4801F035FA0C220121DA4801F028
:102FE00030FA0C220221D84801F02BFA0C220321DE
:102FF000D54801F026FA0C220421D34801F021FA29
:103000000C220521D04801F01CFA3F2000906946AF
:10301000CD4801F08BF90C220B21CC4801F011FABC
:103020000C221146C94801F00CFA0C220D21C748A8
:1030300001F007FA4FF4605000906946C34801F070
:1030400075F90C220321C24801F0FBF90C2204217E
:10305000BF4801F0F6F9182000906946BC4801F01D
:1030600065F90C220E21B94801F0EBF90C220F2171
:10307000B64801F0E6F90C220021B44801F0E1F96C
:103080000C220121B14801F0DCF94CF20300009060
:103090006946AE4801F04AF90C220721AC4801F01C
:1030A000D0F90C220821AA4801F0CBF90C22092101
:1030B000A74801F0C6F90C220A21A54801F0C1F980
:1030C0000C220B21A24801F0BCF90C221146A048A9
:1030D00001F0B7F90C220D219D4801F0B2F90C2244
:1030E0000E219B4801F0ADF90C220F21984801F008
:1030F000A8F94FF6807000906946954801F016F9DE
:103100000C220821914801F09CF90C2209218F48DA
:1031100001F097F90C220A218C4801F092F94FF442
:10312000E06000906946894801F000F90C2207210F
:10313000864801F086F98020009001208DF8070074
:103140006946824801F0F2F80C2209217E4801F01C
:1031500078F94FF40070009001208DF8070069465F
:10316000794801F0E3F80C220421784801F069F96C
:103170000C220521754801F064F930200090694661
:10318000724801F0D3F84020009000208DF8040030
:1031900001208DF8060000208DF8070069466B4875
:1031A00001F0C4F84020009000208DF804008DF854
:1031B00007006946674801F0B9F800208DF804005F
:1031C00001208DF806008DF807008DF805000F200E
:1031D00000906946604801F0A9F801208DF80400CC
:1031E00000208DF806008DF80700702000906946D9
:1031F000584801F09BF8042000906946574801F0B8
:1032000095F800208DF8040001208DF806008DF857
:10321000070002208DF805008003009069464D48A4
:1032200001F084F80820009069464C4801F07EF8CF
:103230000F21002002F007FF0321082002F003FF06
:103240004FF40040009069463F4801F06FF880203D
:1032500000906946414801F069F80721082002F012
:10326000F2FE4020009069463C4801F05FF80621DC
:10327000082002F0E8FE4FF480600090694637486D
:1032800001F054F80A21082002F0DDFE4FF48070AE
:1032900000906946314801F049F80821084602F0DB
:1032A000D2FE4FF4C07000906946274801F03EF806
:1032B0000821062002F0C7FE01208DF8040000203E
:1032C0008DF806008DF8070001208DF805004FF4F9
:1032D000E050009069461C4801F028F80120009059
:1032E00069461C4801F022F84FF48060009069465E
:1032F000144801F01BF8102000906946184801F0AE
:1033000015F80C220821144801F09BF80C22092121
:10331000114801F096F80C220A210F4801F091F8AB
:103320000C220B210C4801F08CF80C2211460A48A3
:1033300001F087F80C220221044801F082F84FF4D2
:1033400070600FE00014024000180240000C0240C0
:10335000001002400000024000080240002002402D
:10336000001C0240009001208DF8050002208DF81D
:10337000040000208DF8060001208DF80700694642
:10338000744800F0D3FF042000906946724800F0B2
:10339000CDFF4FF48050009001208DF80700694662
:1033A0006C4800F0C3FF4FF40060009000208DF8DF
:1033B000040001208DF807006946684800F0B6FF58
:1033C00001208DF8040000208DF806008DF807001C
:1033D00001208DF805008020009069465F4800F0CC
:1033E000A5FF3020009069465A4800F09FFF20203A
:1033F000009069465A4800F099FF03200090694602
:10340000584800F093FF4FF400600090694656481A
:1034100000F08CFF00208DF8040004200090694625
:10342000504800F083FF01208DF8070000208DF840
:103430000400402000906946464800F077FF802154
:10344000464800F0EFFF1021424800F0EBFF20213A
:10345000404800F0E7FF2021414800F0E3FF1CBD99
:1034600000B59DB00121084601F0DCFA0420079068
:10347000002008900420099001200A9000200B9061
:103480000C900D90042000900020019008200290E4
:1034900001200390002004900590069002200E90D9
:1034A00000200F9010901020119000201290139087
:1034B0001490159016904FF480501790002018909B
:1034C00019901A90CDF86CD007A81C900EA800F0A7
:1034D0005FFB0121022000F003FC03200790002085
:1034E00008900220099001200A9000200B900C9077
:1034F0000D900E900F9010901190129013901490C8
:10350000159016904FF48050179000201890199045
:103510001A9007A81B901C900EA800F039FB0121FF
:10352000002000F0DDFB1DB000BD10B5FFF798FFD7
:10353000FFF7FEFC14F06EF94FF4A06000F040F8C5
:1035400011F0DDFDFDF746F9FFF756F8FFF79FFC98
:1035500010BD000000080240000C024000000240C4
:10356000001C024000040240001402400E48804744
:103570000E480047FEE7EFF3098000B5FCF709FFAE
:103580005DF804EB4EF0040E7047FEE7FEE7FEE741
:10359000FEE7FEE7FEE7FEE7FEE700000448054918
:1035A000054A064B7047000087040008890100089F
:1035B00080590120805F0120805B0120805B012019
:1035C00033490143334A1160704770B5002100232D
:1035D0000F22C47824B32F4C246804F4E064C4F5AB
:1035E000E064C4F30721C1F10404E3B20A41447862
:1035F0009C40E1B28478144021430C07210E264CF4
:1036000005786155047804F01F050124AC40057865
:103610006D114FF0E02606EB8505C5F8004109E085
:10362000047804F01F040125A5401C4C067876118F
:1036300044F8265070BD1A4A0A400243154B1B1F1E
:103640001A60704739B1134A121D12680243114BB8
:103650001B1D1A6006E00F4A121D126882430D4BB3
:103660001B1D1A607047042808D14FF0E02109693A
:1036700041F004014FF0E022116107E04FF0E0213A
:10368000096921F004014FF0E02211617047000048
:103690000000FA050CED00E000E400E080E100E04D
:1036A00080FFFF1F016821F001010160002101601E
:1036B00041608160C160016121214161DA49884234
:1036C00004D13D21D84A103A91608CE0D649183196
:1036D000884205D14FF47461D34A103A916082E078
:1036E000D1493031884205D14FF47411CE4A103A95
:1036F000916078E0CC494831884205D14FF074613F
:10370000C94A103A91606EE0C7496031884204D1DD
:10371000C649C54A103AD16065E0C349783188424C
:1037200004D1C349C04A103AD1605CE0BE4990312F
:10373000884204D1BF49BC4A103AD16053E0BA492B
:10374000A831884205D14FF03D51B74A103AD160B7
:1037500049E0B949884204D13D21B74A083A11608D
:1037600041E0B5491831884205D14FF47461B24A3D
:10377000083A116037E0B0493031884205D14FF442
:103780007411AD4A083A11602DE0AB4948318842C6
:1037900005D14FF07461A84A083A116023E0A649A8
:1037A0006031884204D1A149A34A121F11601AE076
:1037B000A1497831884204D19D499F4A121F116066
:1037C00011E09D499031884204D19A499A4A121FCA
:1037D000116008E09849A831884204D14FF03D516A
:1037E000954A121F1160704710B500220268934B72
:1037F0001A40CC680B6823434C6923438C692343EC
:10380000CC6923430C6A23434C6A23438C6A2343C9
:103810004C6B23438C6B23431A430260426922F0B2
:103820000702D1E90B3423431A4342610B69436019
:103830004B6883608B68C36010BD002101604160EC
:103840008160C160016141618161C1610162416268
:103850008162C162016341638163704721B1026883
:1038600042F00102026003E0026822F001020260FD
:10387000704721B1026842F40042026003E002682E
:1038800022F400420260704721B1026842F0200237
:10389000026003E0026822F020020260704741608B
:1038A00070470146486880B2704722B1036843F40C
:1038B0000023036003E0036823F400230360016135
:1038C000704721B1026842F48022026003E002687E
:1038D00022F48022026070470AB1016100E0C160F9
:1038E0007047014600200A6812F4002F01D0012021
:1038F00000E000207047014600200A6812F0010F26
:1039000001D0012000E000207047014600204A69F4
:1039100002F03800704730B503460A460020002404
:10392000454DAB4202D24049103901E042491039BD
:1039300012F0005F01D04C6800E00C68404D2C4054
:10394000144201D0012000E0002030BD02463A4B75
:103950009A4202D23448103801E03748103811F04A
:10396000005F03D0364B0B40C36002E0344B0B408A
:103970008360704710B511F0800F09D022B1436900
:1039800043F08003436103E0436923F08003436114
:1039900080290BD02AB1036801F01E042343036081
:1039A00004E0036801F01E04A343036010BD70B57A
:1039B00002460020002400251F4EB24202D21A4BBC
:1039C000103B01E01C4B103B1E4E314206D01E2620
:1039D00006EAD124166806EA040502E0566906F0F4
:1039E000800511F0005F01D05C6800E01C68144E97
:1039F00034400C4202D00DB1012000E0002070BD27
:103A000002460D4B9A4202D20748103801E00A489C
:103A1000103811F0005F03D0094B0B40C36002E087
:103A2000074B0B4083607047106002403D00002050
:103A3000400F002000003D20106402403F801CF039
:103A40007D0F7D0F3C0F3C0F002041490860091D90
:103A50000860091D0860091D08603E483C49143192
:103A60000860704700213A498279002A3AD00A4614
:103A7000126803689A430B461A600A1D12680368AD
:103A80009A430B1D1A60027911440A6803681A43AD
:103A90000A602F4A0832126803689A432C4B083395
:103AA0001A601A1D126803689A43294B0C331A6076
:103AB0004279102A0ED11A1F126803681A43244B48
:103AC00008331A601A1D126803681A43204B0C331E
:103AD0001A600DE01E49427911440A6803681A43CE
:103AE0000A6005E0027911440A6803689A430A6093
:103AF00070470021016001710C2141710021817129
:103B000070471349103109680143114A103211609E
:103B10007047014600200E4A143212680A4201D052
:103B2000012000E000207047094914310860704707
:103B300001460020064A143212680A4201D00120D0
:103B400000E000207047024914310860704700000F
:103B5000003C0140FFFF7F0030B943F2DB014FF032
:103B6000204242F8201005E043F2D2014FF02042FB
:103B700042F820106FF07042411C4FF0204343F890
:103B8000212011461A4602EB8002C2F80411704748
:103B900070B50021002200234FF02045046855F83D
:103BA0002410FE4C2140D0E901452C43C5682C432C
:103BB00005692C4345692C4385692C43C5692C4311
:103BC000056A2C43456A2C43856A2C43C56A2C43FD
:103BD000056B2C4321434FF02045046845F8241021
:103BE0008468082C09D1046855F8244044F0400446
:103BF0004FF02046056846F825400468641C4FF0E5
:103C0000204555F8242002F04042446B2468456B5F
:103C10006D6844EA0514456BAD6844EA0524456BBC
:103C2000AD8944EA0544456B2D8A44EA0554456B49
:103C30002D7D44EA0564456BAD692C43224304683D
:103C4000641C4FF0204545F82420C46AB4F5804F29
:103C500024D1046805EB8404D4F8043103F0404314
:103C6000846B2468856B6D6844EA0514856BAD68C8
:103C700044EA0524856B2D8A44EA0554856B2D7D25
:103C800044EA0564856BAD692C4323434FF020451E
:103C9000046805EB8404C4F8043108E06FF0704454
:103CA0004FF02046056806EB8505C5F8044170BD58
:103CB000002101600221416000218160C160016139
:103CC00041618161C16101624FF4805141624900EB
:103CD00081620021C1620163B14941638163704720
:103CE00051B14FF0204252F8202042F001024FF033
:103CF000204343F8202009E04FF0204252F82020D2
:103D0000A84B1A404FF0204343F82020704710285A
:103D10000AD118214FF020421166402151664FF020
:103D2000FC319166D16610E018219F4A11604FF076
:103D300040014FF02042C2F884104FF0FC319B4A02
:103D400011604FF02042C2F88C10704730B500214E
:103D5000002200230468102C03D14FF02044216E70
:103D600001E0914C2168924C01EA0401446844F05E
:103D70000804856844EA0504C56844EA0504056941
:103D800044EA0504456944EA4524856944EA453422
:103D900044EA01010468102C03D14FF02044A26EC4
:103DA00001E0824C22684FF00002C4692468C569B2
:103DB0006D6844EA0524C5692D8944EA0544C5694E
:103DC0002D7B44EA056444EA02020468102C03D106
:103DD0004FF02044E36E02E04FF02044E36E0023F6
:103DE000046A2468056A6D6844EA0524056A2D8919
:103DF00044EA0544056A2D7B44EA056423430468CC
:103E0000102C05D14FF020442166A266E36607E03E
:103E1000654C21604FF02044C4F88820654C236035
:103E200030BD10210160002141608160C1600161ED
:103E300041618161FC21C2691160C2695160C2693E
:103E40009160C269D160026A1160026A5160026ABF
:103E50009160026AD160704799B1102808D14FF083
:103E60002042126E42F004024FF020431A661DE019
:103E70004D4A126842F004024FF02043C3F88020FC
:103E800014E0102809D14FF02042126E454BDB1E82
:103E90001A404FF020431A6608E0434A1268464B26
:103EA00002EA03024FF02043C3F88020704799B123
:103EB000102808D14FF02042126E42F040024FF01D
:103EC00020431A661DE0384A126842F040024FF063
:103ED0002043C3F8802014E0102809D14FF020427D
:103EE000126E354B3C3B1A404FF020431A6608E0F7
:103EF0002D4A1268314B02EA03024FF02043C3F807
:103F00008020704701460020102903D14FF0204245
:103F1000506F01E02A4A106870471820294908604C
:103F20004FF000004FF02041C1F8A4004FF0FC30EA
:103F30002549086001F10401086001F104010860ED
:103F4000704770B500210022002300241D4D296810
:103F50001E4D01EA0501056845F01005466845EA71
:103F60004625866845EA463545EA01014FF0204579
:103F7000C5F8A010144D2A681A46C5682D68C66891
:103F8000766845EA0625C668368945EA0645C66864
:103F9000367B45EA066545EA020219E08000F7FF34
:103FA00004200408FEFF0F00800000A0880000A08D
:103FB0008101F0FF8C0000A0FBFF0F00BFFF0F008E
:103FC000940000A0A00000A0A80000A0CD01FEFF6A
:103FD0004FF02045C5F8A8208B4D2B682346056976
:103FE0002D680669766845EA06250669368945EA38
:103FF00006450669367B45EA066545EA03034FF048
:104000002045C5F8AC30814D2C684FF0000445695F
:104010002D684669766845EA06254669368945EA87
:1040200006454669367B45EA066545EA04044FF0D5
:104030002045C5F8B04070BD00210160416081603D
:10404000FC21C2681160C2685160C2689160C26898
:10405000D160026911600269516002699160026970
:10406000D160426911604269516042699160426960
:10407000D160704740B16649096841F004014FF0D2
:104080002042C2F8A01008E061490968614A01EACB
:1040900002014FF02042C2F8A010704710B5F2B1F3
:1040A000102807D14FF020435B6E0B434FF02044A4
:1040B000636632E0B0F5807F08D1574B1B6843EA56
:1040C00001034FF02044C4F8843026E0534B1B68B2
:1040D00043EA01034FF02044C4F8A4301DE0102847
:1040E00007D14FF020435B6E8B434FF02044636653
:1040F00013E0B0F5807F08D1474B1B6823EA01032A
:104100004FF02044C4F8843007E0444B1B6823EA96
:1041100001034FF02044C4F8A43010BD10B502468E
:1041200000200023102A03D14FF02044636E07E0E3
:10413000B2F5807F02D1384C236801E0374C236808
:104140000B4201D0012000E0002010BD102807D153
:104150004FF02042526E8A434FF020435A6613E0DC
:10416000B0F5807F08D12C4A126822EA01024FF094
:104170002043C3F8842007E0284A126822EA01029B
:104180004FF02043C3F8A420704770B502460020CA
:10419000002300240025102A03D14FF02046736E1F
:1041A00007E0B2F5807F02D11B4E336801E01B4E61
:1041B000336803EA010403EAD10514B10DB101200B
:1041C00000E0002070BD102808D14FF02042526E50
:1041D00022EAD1024FF020435A6613E0B0F5807F07
:1041E00008D10D4A126822EAD1024FF02043C3F8E9
:1041F000842007E0094A126822EAD1024FF02043E6
:10420000C3F8A42070470000AC0000A0B00000A0DC
:10421000A00000A0FBFF0F00840000A0A40000A0ED
:1042200010B504469848844208D10121084600F0A0
:104230002CFC0021012000F028FC76E09348844209
:1042400008D10121022000F020FC0021022000F012
:104250001CFC6AE08E48844208D10121042000F051
:1042600014FC0021042000F010FC5EE08948844228
:1042700008D10121082000F008FC0021082000F0EE
:1042800004FC52E08448844208D10121102000F04F
:10429000FCFB0021102000F0F8FB46E07F48844240
:1042A00008D10121202000F0F0FB0021202000F0A7
:1042B000ECFB3AE07A48844208D10121402000F02A
:1042C000E4FB0021402000F0E0FB2EE07548844232
:1042D00008D10121802000F0D8FB0021802000F0CF
:1042E000D4FB22E07048844208D10121801500F0FF
:1042F000CCFB0021A01500F0C8FB16E06B488442FF
:1043000008D10121401500F0C0FB0021601500F02C
:10431000BCFB0AE06648844207D10121001500F089
:10432000B4FB0021201500F0B0FB10BDF0B50A462B
:1043300000210023002400BF3DE0012505FA01F320
:10434000156805EA03049C4234D105684F00032632
:10435000BE40B543056015794E00B540066835434B
:1043600005601579012D02D01579022D16D18568C9
:104370004F000326BE40B543856055794E00B540D9
:10438000866835438560456801268E40B5434560A3
:10439000456896798E40B6B235434560C5684F0092
:1043A0000326BE40B543C560D5794E00B540C6680A
:1043B0003543C560491C1029BFD3F0BD4FF6FF71CE
:1043C00001600021017141718171C171704708B5AF
:1043D0004FF480320092009A0A430092009AC26120
:1043E000C161009AC261C2690092C269009208BDAF
:1043F0000246002013690B4201D0012000E000209A
:1044000070470146086980B2704702460020536930
:104410000B4201D0012000E00020704701464869AE
:1044200080B2704701837047418370470AB10183AE
:1044300000E0418370474161704742694A404261F0
:104440007047F0B5002300244D07ED0E02FA05F386
:10445000CE1000F1200555F826504E07F70E0F2616
:10446000BE40B543CF1000F1200646F82750CE10CD
:1044700000F1200555F8265045EA0304CE1000F15E
:10448000200545F82640F0BD00000240000402402F
:1044900000080240000C02400010024000140240DC
:1044A00000180240001C024000200240002402408C
:1044B0000028024010B50121080700F019FB002177
:1044C0004FF0805000F014FB10BD4849086270475F
:1044D00001460020464A106820F0E00008431060C2
:1044E0007047424908617047424908607047424935
:1044F00008607047014600203D4A106820F44040A3
:104500000843106070473949086470473749486468
:10451000704730B13649096841F44021344A11608E
:1045200005E03349096821F44021314A11607047A0
:104530002E494862704710B5024600202C4B18687F
:1045400040F6034398431043294B18602B4B1B68DC
:1045500043F00403294C2360012901D130BF00E05E
:1045600020BF264B1B6823F00403244C236010BD9E
:1045700010B5024600201E4B186840F603439843CE
:1045800010431B4B18601D4B1B6843F004031B4C6E
:104590002360012901D130BF00E020BF174B1B6809
:1045A00023F00403154C236010BD1148006840F04F
:1045B00002000F4908601148006840F004000F49EC
:1045C000086000BF00BF30BF704701460020084AA6
:1045D00052680A4201D0012000E0002070470449DF
:1045E000096841EA8001024A1160704700000E42EA
:1045F00000700040A0000E42A4000E4210ED00E04A
:10460000F948006840F00100F74908600020F649C9
:1046100008310860F4480068F4490840F24908602D
:10462000F348091D0860F348EF4984310860F048F9
:104630001038091D0860EC48006820F48020EA4921
:1046400008600020E8490C310860E7498C310860B7
:1046500070470021E44A921C11701146087070479F
:1046600010B501460022002300204A11012A02D180
:10467000DD4C236808E0022A03D1DB4C7034236848
:1046800002E0D94C7434236801F01F0201249440E5
:104690001C4201D0012000E0002010BD38B50020F0
:1046A00000900024002500BF3120FFF7D9FF054608
:1046B0000098401C00900098B0F5A04F01D0002D4C
:1046C000F2D03120FFF7CCFF08B1012400E0002434
:1046D000204638BD01460020C34A106820F0F8008B
:1046E00040EAC10010607047C3490860704700216C
:1046F000BD4A703211701170012802D004280AD10D
:1047000004E00121B84A7032117005E00521B64A73
:104710007032117000E000BF00BF7047B7490860F9
:10472000704770B5049C41EA82150126C6EB53061A
:1047300045EA0645054345EA0465AB4E361D35603E
:1047400070BDAD4908667047820142EA0172A64B0E
:1047500084331A607047A8498866704710B5830192
:1047600043EA016343EA02739F4C8834236010BD1F
:10477000A14908677047A049C864704702460020F5
:10478000994B0833186820F0EC6042EA01031843A3
:10479000954B08331860704702460020924B08334F
:1047A000186820F0784042EA010318438E4B083322
:1047B00018607047014600208B4A0832106820F0CC
:1047C000030008431060704787480830006800F015
:1047D0000C00704701460020834A0832106820F020
:1047E000F000084310607047014600207E4A0832FE
:1047F000106820F4E0500843106070470146002024
:10480000794A0832106820F4604040EAC100106024
:104810007047F0B500210022002402250026022363
:10482000714F08373F6807F00C0121B1042905D00A
:10483000082937D105E0724F076036E0714F0760F5
:1048400033E0694F3F1D3F68C7F38056664F3F1DF9
:104850003F6807F03F036EB16A4FB7FBF3F7DFF82D
:1048600088C10CF1040CDCF800C0CCF3881C07FBF9
:104870000CF40CE0624FB7FBF3F7DFF86CC10CF1FE
:10488000040CDCF800C0CCF3881C07FB0CF4564F7A
:104890003F1D3F68C7F301477F1C7D00B4FBF5F760
:1048A000076002E0564F076000BF00BF4E4F083759
:1048B0003F6807F0F0010909534F7A5C0768D74059
:1048C0004760494F08373F6807F4E051890A4E4F67
:1048D0007A5C4768D7408760434F08373F6807F4E2
:1048E0006041490B484F7A5C4768D740C760F0BDCC
:1048F000002100F44072B2F5407F0AD13A4A0832F2
:10490000116821F4F811414A02401143364A083235
:104910001160354A70321268C0F30B031A43324BF0
:1049200070331A607047354944390860704733491D
:1049300040390860704736490860704701460020DA
:10494000294A8C32106820F44010084310607047E8
:1049500001460020244A8C32106820F440000843AD
:1049600010607047014600201F4A8C32106820F00A
:104970001F004A1E10431C4A8C32106070470146CB
:104980000020194A8C32106820F4F8504A1E40EA80
:104990000220154A8C321060704701460020124AEE
:1049A0008C32106820F44030084310607047194979
:1049B0000860704739B10C4A3032126802430A4B22
:1049C00030331A6006E0084A303212688243064BE0
:1049D00030331A607047F9B1034A34321268024327
:1049E000014B34331A601CE000380240FFFFF6EA46
:1049F000103000240030002000004742800E474263
:104A00000024F40040787D0135000020FFFCFF0FFA
:104A10005C014742E01147428F4A126882438E4B45
:104A20001A60704739B18C4A121D126802438A4BD2
:104A30001B1D1A6006E0884A121D12688243864BCD
:104A40001B1D1A60704739B1834A0C321268024349
:104A5000814B0C331A6006E07F4A0C3212688243A5
:104A60007D4B0C331A60704739B17B4A10321268A3
:104A70000243794B10331A6006E0774A103212680D
:104A80008243754B10331A60704739B1724A243A29
:104A900012680243704B243B1A6006E06E4A243AC7
:104AA000126882436C4B243B1A60704739B16A4AE2
:104AB000203A12680243684B203B1A6006E0664ABF
:104AC000203A12688243644B203B1A60704739B128
:104AD000614A1C3A126802435F4B1C3B1A6006E0B5
:104AE0005D4A1C3A126882435B4B1C3B1A6070475C
:104AF00039B1594A143A12680243574B143B1A60B1
:104B000006E0554A143A12688243534B143B1A602C
:104B1000704739B1504A103A126802434E4B103B6D
:104B20001A6006E04C4A103A126882434A4B103B26
:104B30001A60704739B1484A1C3212680243464B2A
:104B40001C331A6006E0444A1C3212688243424B0E
:104B50001C331A60704739B13F4A20321268024351
:104B60003D4B20331A6006E03B4A203212688243F4
:104B7000394B20331A60704739B1374A24321268F2
:104B80000243354B24331A6006E0334A243212685C
:104B90008243314B24331A60704739B12E4A2C328C
:104BA000126802432C4B2C331A6006E02A4A2C323E
:104BB00012688243284B2C331A60704739B1264A59
:104BC000303212680243244B30331A6006E0224A26
:104BD000303212688243204B30331A60704701280C
:104BE00008D11D493C31096841F008011A4A3C329C
:104BF000116007E018493C31096821F00801164AA4
:104C00003C321160704739B1134A273A1278024397
:104C1000114B273B1A7006E00F4A273A127882435D
:104C20000D4B273B1A7070470B484030006840F02E
:104C30008070094940310860704701460020064AEB
:104C4000283A12680A4201D0012000E00020704793
:104C500001492639087070473438024008B50022EF
:104C6000009200200021CA22F94B1A6053221A60D8
:104C7000F74A183A126822F0A002F54B183B1A6066
:104C800000BFF34A183A126802F02001009A521C41
:104C90000092009AB2F5003F01D00029F1D0EC4A11
:104CA000183A126812F0200F01D0012000E0002015
:104CB000FF22E74B1A6008BD08B5002200920020D1
:104CC0000021E34A183A126812F0400F1CD1421E2C
:104CD000DF4B183B1A6000BFDD4A183A126802F039
:104CE0004001009A521C0092009AB2F5803F01D018
:104CF0000029F1D0D64A183A126812F0400F01D0BC
:104D0000012002E0002000E0012008BD38B50020AD
:104D1000009000240025CA20CD4908605320086077
:104D2000FFF7CAFF00B952E00020C94924390860E2
:104D300042F20110091D0860081D006800F007001C
:104D4000091D086000BFC2481838006800F004045C
:104D50000098401C00900098B0F5803F01D0002CD6
:104D6000F1D0BB481838006810F0040F01D10025BD
:104D70002DE0B7481C3800680020B5491C39086090
:104D80004FF6FF70B24910390860B248091F086039
:104D90000020AF490C390860091D0860091D086032
:104DA000AB4908310860AA4918310860A849203188
:104DB0000860091D0860A64918390860A4491C311B
:104DC0000860FFF74BFF08B9002500E00125FF2030
:104DD0009F490860284638BD9D481838006820F073
:104DE00080009B4918390860704730B5044600259B
:104DF000CA209749086053200860FFF75DFF00B99B
:104E00001DE093481C38006820F0400090491C3990
:104E1000086008460068216808438D491C3908600D
:104E20008B491439A068086008460068A18840EAE8
:104E30000140874914390860FFF7CEFF0125FF20A4
:104E400083490860284630BD002101607F21416010
:104E5000FF218160704718B1FF217D4A116004E095
:104E6000CA217B4A116053211160704730B5044656
:104E70000025CA207649086053200860FFF71CFF10
:104E800000B914E044B172481C38006840F01000CA
:104E90006F491C39086007E06D481C38006820F035
:104EA00010006B491C390860FFF796FF0125FF20B1
:104EB00067490860284630BDCA21654A1160532100
:104EC000116040B162491C39096841F02001604A13
:104ED0001C3A116007E05E491C39096801F0DF01E6
:104EE0005B4A1C3A1160FF21594A11607047014624
:104EF000002204E0501CC2B2A1F10A00C1B20A298A
:104F0000F8DA100741EA10607047014600BF08094F
:104F100000EB8000420001F00F001044C0B2704767
:104F20002DE9F04105460C460026002755B94848B2
:104F30001C38006810F0400F00D002E00020E07044
:104F400000BF0EE042481C38006810F0400F04D04B
:104F50002078FFF7DAFF064602E00020E07000BF8D
:104F600000BF55B120780004617840EA0120A178A3
:104F70000843E17840EA014611E02078FFF7B7FFE7
:104F80004FEA00486078FFF7B2FF48EA0028A078AF
:104F9000FFF7ADFF48EA0008E07848EA0046CA207B
:104FA0002B49086053200860FFF786FE08B90027E8
:104FB00014E029483040264924390860FFF70CFFE7
:104FC00023481C38006810F0200F06D1FFF746FE7A
:104FD00008B9002702E0012700E00127FF201C4953
:104FE00008603846BDE8F0810021C1700170417051
:104FF0008170704770B506460C4600251448243869
:105000000068154900EA0105C5F305402070C5F3A5
:105010000620607005F07F00A07005F48000000C91
:10502000E0705EB92078FFF770FF20706078FFF7BE
:105030006CFF6070A078FFF768FFA07070BD002063
:105040000349091D086802492039096870470000B2
:1050500024280040FF007F007F7F7F002DE9F04182
:1050600005460C46002600274DB9607800F0100078
:10507000102804D1607820F010000A30607005B963
:1050800008E06078FFF741FF0646A078FFF73DFF94
:10509000064600BF55B1E0780004617840EA01207F
:1050A000A1780843217840EA413611E0E078FFF723
:1050B0001EFF4FEA00486078FFF719FF48EA002812
:1050C000A078FFF714FF48EA0008207848EA403645
:1050D000CA20FE49086053200860FFF7EDFD08B9BB
:1050E000002714E0FA483040F84920390860FFF7FB
:1050F00073FEF6481C38006810F0200F06D1FFF749
:10510000ADFD08B9002702E0012700E00127FF20DC
:10511000EE4908603846BDE8F081012101708170D8
:1051200041700021C170704770B506460C460025DD
:10513000E64820380068E64900EA0105280CE070DE
:10514000C5F30420607005F03F00A070C5F3423045
:1051500020705EB9E078FFF7D8FEE0706078FFF766
:10516000D4FE6070A078FFF7D0FEA07070BD2DE96E
:10517000F04105460E46144600276DB9D3481C3849
:10518000006810F0400F00D002E00020E07000BF87
:10519000A06800B91AE019E0CC481C38006810F08B
:1051A000400F04D02078FFF7B0FE074602E0002051
:1051B000E07000BFA06820B9207BFFF7A6FE07467D
:1051C00004E0207BFFF7A1FE074600BF95B12078E1
:1051D0000004617840EA0120A1780843E17840EAC0
:1051E0000140217B40EA0160A1680843616840EA10
:1051F00001071BE02078FFF77AFE4FEA004860784D
:10520000FFF775FE48EA0028A078FFF770FE48EA2D
:105210000008E07848EA0048207BFFF768FE48EA8B
:105220000060A1680843616840EA0107CA20A749F5
:10523000086053200860B6F5807F03D1A348083882
:10524000076002E0A148001F0760FF209F49086037
:10525000BDE8F0810021C1700170417081708160F2
:10526000012101730021416070472DE9F04106469C
:105270000F4614460025B7F5807F03D193480838C0
:10528000056802E09148001F0568C5F305402070DD
:10529000C5F30620607005F07F00A07005F4800063
:1052A000000CE070C5F30560207305F08040A0603D
:1052B00005F0803060607EB92078FFF726FE207010
:1052C0006078FFF722FE6070A078FFF71EFEA070E6
:1052D000207BFFF71AFE2073BDE8F08138B5024647
:1052E0000024009400230020CA24784D2C6053240D
:1052F0002C6041B1754C1C3C24681443734D1C3D1B
:105300002C6001201EE0714C1C3C246894436F4DBE
:105310001C3D2C6000BF6D4C183C246804EA12232D
:10532000009C641C0094009CB4F5803F01D0002BCD
:10533000F1D0664C183C246814EA122F01D10020E9
:1053400000E00120FF24614D2C6038BD30B5002302
:10535000CA245E4D2C6053242C6041EA0203B0F550
:10536000807F03D1594C2034236002E0574C243411
:105370002360FF24554D2C6030BD01460020B1F55F
:10538000807F05D1514A20321268C2F30E0004E03A
:105390004E4A24321268C2F30E007047CA214B4AAB
:1053A00011605321116049491C39096821F0070136
:1053B000464A1C3A11601146096801431160FF21F9
:1053C000424A11607047CA21404A1160532111605E
:1053D0003E4910390860FF21116070473B48103882
:1053E000006880B2704718B5014600230093002280
:1053F0000020CA23354C23605323236049B1334B2B
:105400001C3B1B6843F48063304C1C3C2360012030
:105410001FE02E4B1C3B1B6823F480632B4C1C3C71
:10542000236000BF294B183B1B6803F00402009B5C
:105430005B1C0093009BB3F5803F01D0002AF1D0A4
:10544000224B183B1B6813F0040F01D1002000E031
:105450000120FF231D4C236018BDCA221B4B1A607C
:1054600053221A60194A1C3A126822F48022174B00
:105470001C3B1A601A46126840EA01031A43134B98
:105480001C3B1A60FF22114B1A6070470F481C38F2
:10549000006800F480207047CA220C4B1A60532227
:1054A0001A600A4A1C3A126822F4E002074B1C3BBD
:1054B0001A601A46126840EA01031A43034B1C3B68
:1054C0001A60FF22014B1A60704700002428004038
:1054D0003FFFFF0070B504460D460026CA20F6497E
:1054E000086053200860FFF7E7FB00B907E044EAD3
:1054F0000500F1490C390860FFF76EFC0126FF201A
:10550000ED490860304670BD30B504460025CA201C
:10551000E949086053200860FFF7CEFB00B914E0AA
:1055200044B1E5481C38006840F08000E2491C396D
:10553000086007E0E0481C38006820F08000DE4981
:105540001C390860FFF748FC0125FF20DA49086094
:10555000284630BDCA21D84A11605321116040B19C
:10556000D5491C39096841F40001D34A1C3A11603D
:1055700007E0D1491C39096821F40001CE4A1C3AE0
:105580001160FF21CC4A11607047CA21CA4A1160DC
:1055900053211160C8491C39096821F40021C64A09
:1055A0001C3A11601146096801431160FF21C24A8B
:1055B0001160704770B5034600200024CA25BE4E16
:1055C000356053253560BC4D183D2D6815F4803F7E
:1055D0000AD000E0641CB84D183D2D6815F4803FDA
:1055E00002D0B4F5003FF5D1B34D183D2D6815F448
:1055F000803F07D143EA01051543AF4E18363560A9
:10560000012000E00020FF25AB4E356070BD10B5D5
:105610000A460021A84B1C3B1B6840F6080423EAFD
:1056200004011AB140F40063194300E00143CA23A6
:10563000A14C2360532323609F4B1C3B1960FF2325
:10564000236010BD2DE9F04180460C46154600262A
:10565000002799480C300068984900EA01069648EE
:1056600010300068964900EA0107C6F30540207033
:10567000C6F30620607006F07F00A07006F480007C
:10568000000CE0700020E870C7F30420687007F099
:105690003F00A870C7F342302870B8F1000F17D14F
:1056A0002078FFF732FC20706078FFF72EFC6070E6
:1056B000A078FFF72AFCA0706878FFF726FC6870D6
:1056C000A878FFF722FCA8702878FFF71EFC287046
:1056D000BDE8F081784814300068704741B9764AD7
:1056E0001C32126822EA4002734B1C331A6007E036
:1056F000714A1C32126842EA40026F4B1C331A6036
:10570000704739B16C4A1C32126802436A4B1C3331
:105710001A6006E0684A1C3212688243664B1C33EA
:105720001A60704764491C31096821F4C051624A0B
:105730001C321160114609680143116070475E49CF
:105740001C31096821F4E0615B4A1C32116011468A
:10575000096801431160704757491C31096821F4F9
:10576000C041554A1C32116011460968014311605D
:10577000704740B150491C31096841F080014E4AE0
:105780001C32116007E04C491C31096821F080018E
:10579000494A1C321160704740B147491C310968C1
:1057A00021F40041444A1C32116007E042491C3197
:1057B000096841F40041404A1C321160704708B545
:1057C000002200923C4A2C320092009A02EB8002A6
:1057D0000092009A116008BD08B5014600200090B3
:1057E00035482C300090009800EB81000090009824
:1057F000006808BD30491C31096821F480312E4A07
:105800001C321160114609680143116070472A4932
:105810001C31096821F40031274A1C3211601146FD
:10582000096801431160704723491C31096821F45C
:105830008021214A1C321160114609680143116020
:105840007047F0B504460D4600270026CA201A49C5
:1058500008605320086018481838006810F0080FD6
:105860000AD000E0761C14481838006810F0080FC1
:1058700002D0B6F5805FF5D10F481838006810F0F7
:10588000080F13D10C481C38006810F0100F0BD112
:1058900045EA0400084908310860FFF7DFF908B954
:1058A000002704E0012702E0002700E00027FF2096
:1058B000014908603846F0BD242800407F7F7F0002
:1058C0003FFFFF00CA223D4B1A6053221A6091B17C
:1058D0003A4A1C3A126820F004031A43374B1C3B27
:1058E0001A60364A1C32126800F004031A43334B24
:1058F0001C331A6011E0314A1C3A126820F004038C
:105900009A432E4B1C3B1A602C4A1C32126800F042
:1059100004039A43294B1C331A60FF22274B1A6059
:10592000704710B5014600200022244B183B1B682D
:10593000234C03EA04020A4201D0012000E00020C7
:1059400010BD81B241F080011C4A183A126802F081
:10595000800262EA0101194A183A1160704730B5B5
:105960000146002000220023144C1C34246804F05B
:105970000402124C1C3C24680C4002EAD13544EA73
:1059800005030E4C183C246804EA111223B11404D8
:10599000240C01D0012000E0002030BD00210109CD
:1059A0008AB242F08002054B183B1B6803F080036B
:1059B00063EA0202014B183B1A607047242800403A
:1059C0007F3F010010B50121C802FFF7A2F80021B6
:1059D0004FF40060FFF79DF810BD00216B4A11687D
:1059E00047F6FF629143027D83681A4343681A4376
:1059F000C3681A4303681A4303691A431143634A8D
:105A00001160704700210175016041608160C160D3
:105A1000016170475E49086070475C49091F086072
:105A200070475A48001F006800F0030070470021CB
:105A3000564B1B1D02681A601A1D11686FF30A018C
:105A4000D0E901231A43C3681A4303691A43114377
:105A50004E4A083211607047002101604160816048
:105A6000C1600161704749480C300068C0B270479E
:105A700008B50146002000904448103008440090CA
:105A80000098006808BD0021404B203302681A606E
:105A90001B1D42681A601A1D116821F0F701D0E938
:105AA00002231A4303691A4343691A431143374ACD
:105AB0002832116070474FF0FF31016000214160D2
:105AC0008160C16001614161704730482C300068DD
:105AD00070472E487C30006870472C497C31086044
